:100000000C94AB000C94C8000C94C8000C94C8006D
:100010000C94C8000C94C8000C94C8000C94C80040
:100020000C94C8000C94C8000C94C8000C94C80030
:100030000C94C8000C9448020C9466020C94C800FE
:100040000C94C8000C94C8000C94C8000C94C80010
:100050000C94C8006E616E00696E660000407A10F4
:10006000F35A00A0724E18090010A5D4E80000E869
:100070007648170000E40B54020000CA9A3B0000C7
:1000800000E1F505000080969800000040420F0056
:100090000000A08601000000102700000000E80317
:1000A000000000006400000000000A0000000000E2
:1000B0000100000000002C76D888DC674F0823DFA1
:1000C000C1DFAE59E1B1B796E5E3E453C63AE65174
:1000D000997696E8E6C28426EB898C9B62ED407C9B
:1000E0006FFCEFBC9C9F40F2BAA56FA5F490055A37
:1000F0002AF75C936B6CF9676DC11BFCE0E40D475C
:10010000FEF520E6B500D0ED902E0300943577057E
:100110000080841E080000204E0A000000C80C3336
:100120003333330F986E12831141EF8D2114893BC5
:10013000E65516CFFEE6DB18D1844B381BF77C1D45
:10014000901DA4BBE424203284725E228100C9F198
:1001500024ECA1E53D2711241FBECFE5D8E0DEBF8A
:10016000CDBF10E0A0E6B0E0E6E5FDE102C00590FD
:100170000D92A238B107D9F710E0A2E8B0E001C0B3
:100180001D92AD3CB107E1F70E9404020C94A90E48
:100190000C940000873071F1883070F4833011F1D5
:1001A000843028F48130C1F08230D0F417C085301B
:1001B000E9F08630E8F418C08B3021F18C3028F457
:1001C0008930E1F08A30E0F417C08D30F9F08D30DD
:1001D000D8F08E30F9F41CC081E3089580E30895CF
:1001E00082E3089583E3089584E3089585E3089501
:1001F00086E3089587E3089588E3089589E30895E1
:1002000081E6089582E6089583E6089584E60895D8
:1002100085E6089586E608950F931F93DF93CF93A5
:10022000CDB7DEB729970FB6F894DEBF0FBECDBFAE
:10023000898786E390E068E370E047E350E020E0E0
:100240000E94AF040E946504CE0109968E010F5FE3
:100250001F4FB8010E94AF069985892F8E5F8230AB
:1002600028F081E0B8010E9492069985892F29968D
:100270000FB6F894DEBF0FBECDBFCF91DF911F91B7
:100280000F910895CF93DF93EC0103C00E949C026D
:10029000219688818823D1F7DF91CF9108951F930C
:1002A000182F82958F700E94CA000E949C02812F95
:1002B0008F700E94CA000E949C021F910895EF92C5
:1002C000FF920F931F93CF93DF937C018B01C0E0CC
:1002D000D0E007C0F701EC0FFD1F80810E944F01A5
:1002E0002196C017D107B4F3DF91CF911F910F91E1
:1002F000FF90EF900895CF92DF92EF92FF920F93CD
:100300001F93DF93CF93CDB7DEB76F970FB6F894F7
:10031000DEBF0FBECDBF8F8F86E390E068E370E055
:1003200047E350E020E00E94AF040E94650493E0A0
:10033000C92ED12CCC0EDD1ECE014F96B6010E94E7
:10034000AF069F8D892F8E5F823008F44DC0C601A5
:10035000BE016F5F7F4F0E94DC05882309F043C018
:100360008DB79EB708970FB6F8949EBF0FBE8DBF8E
:100370000DB71EB70F5F1F4F8BE0E82EF12CEC0E70
:10038000FD1EEDB7FEB7F282E18280E690E0F80153
:100390009383828369817A81882777FD8095982F5E
:1003A0000E94590B20E030E040E251E40E94BE0A76
:1003B000F80164837583868397830E94F50D8DB75A
:1003C0009EB708960FB6F8949EBF0FBE8DBFC601AC
:1003D00068E070E00E945F01C7010E94420187E669
:1003E00090E00E9442019F8D892F6F960FB6F8947E
:1003F000DEBF0FBECDBFCF91DF911F910F91FF9058
:10040000EF90DF90CF9008950F931F93CF93DF93DA
:100410000E94380280E884BB85BB78948FEFC0E0EF
:10042000D0E00CE211E005C00E940C01882329F005
:1004300021969AEFC030D907B8F38CE49DE1F8011A
:100440003197F1F70197D9F78FEFC0E0D0E00E9424
:100450007B01882329F021969AEFC030D907B9F79C
:1004600087E690E00E9442018FEFC0E0D0E0E1CF4C
:100470008DE489B910BC88E98AB986E880BD1092FC
:10048000A3001092A2001092C5001092C40008951B
:100490001F920F920FB60F9211248F939F93EF9399
:1004A000FF939CB18091A2008F5F8F718093A20017
:1004B000E2E8F0E0E80FF11D9083FF91EF919F914A
:1004C0008F910F900FBE0F901F9018951F920F9253
:1004D0000FB60F9211248F939F93EF93FF939091F8
:1004E000C4008091C500981761F0E091C500EF5FEE
:1004F000EF71E093C500F0E0EC55FF4F80818CB9BF
:1005000001C05598FF91EF919F918F910F900FBE71
:100510000F901F9018959091A2008091A3009817BA
:10052000D1F3E091A300EF5FEF71E093A300F0E05F
:10053000EE57FF4F80810895282F9091C4009F5F50
:100540009F718091C5009817E1F3E92FF0E0EC5519
:10055000FF4F20839093C400559A08959091A20074
:100560008091A30020E0981321E0822F0895FC01E0
:1005700010869C0128503040862F8170805D8783D3
:1005800066953197E217F307B9F70895FC01108AD1
:100590009C0120513040862F8170805D8787769541
:1005A00067953197E217F307B1F70895DC01FC0175
:1005B000329612961C921297862F90E08F70907050
:1005C000362F3F700A971CF4832F805D02C0832F63
:1005D000895A31978083262F22952F70822F90E0A1
:1005E0002F700A9714F4205D01C0295A2C930895A6
:1005F000DC0114961C921497FC013396CB018F708A
:100600009070262F2F700A9718F4822F805D02C0F9
:10061000822F895A8083EA17FB0739F0319794E0DB
:10062000769567959A95E1F7E9CF0895CF93DF9393
:10063000EC011886FC013796DB01CA018F709070BF
:10064000A070B070242F2F700A97A105B10518F47F
:10065000822F805D02C0822F895A8083EC17FD07AC
:1006600049F0319724E076956795579547952A95F7
:10067000D1F7E2CFDF91CF9108954F925F926F92C1
:100680007F928F929F92AF92BF92CF92DF92EF9222
:10069000FF920F931F93DF93CF93CDB7DEB7689789
:1006A0000FB6F894DEBF0FBECDBF4C015A016B01EF
:1006B000422E602E5E2CDE011196EAE6F0E088E123
:1006C00001900D928150E1F7C601B50120E030E0C4
:1006D00040E050E00E94090CFE013196242D30E0EC
:1006E0008823BCF0220F331F220F331FE20FF31FAA
:1006F000E080F18002811381C601B501A801970154
:100700000E940D0C20E030E040E05FE30E94560ABA
:1007100016C0220F331F220F331FE20FF31FE0809A
:10072000F18002811381C601B501A80197010E94E1
:100730000D0C20E030E040E05FE30E94550AA80184
:1007400097010E94BE0A6B017C01772420E030E013
:1007500040E050E00E94BA0A8823F4F477247394AE
:10076000C701B60120E030E040E85FEB0E94090CD1
:10077000181694F4C4016FEF7FEF462D50E0252D3D
:1007800030E00E94950D5C0180E3F50182935F01EA
:100790000894A11CB11C0AC0C401B701A601262DF2
:1007A00030E0052D10E00E94950D5C018EE2F50110
:1007B0008083772021F0F7FAF094F7F8F094C701DE
:1007C000B6010E94260B0E94590B9B01AC01C70188
:1007D000B6010E94550A042D10E00894A11CB11C1A
:1007E000F801EE0FFF1FEE0FFF1FEC0FFD1F218121
:1007F0003281438154810E940D0C0E94260BAB0173
:10080000BC01C501980100E010E00E94950D6896BA
:100810000FB6F894DEBF0FBECDBFCF91DF911F9111
:100820000F91FF90EF90DF90CF90BF90AF909F908F
:100830008F907F906F905F904F900895DC0120E043
:1008400040E050E098E115C0FD01E40FF51FE081A4
:1008500038E08E2F8227F82FF17080FD292726950A
:10086000F13009F42068315011F0E695F2CF4F5F76
:100870005F4F4617570741F7822F0895E091C9004F
:10088000F091CA0080819091C80089230895E09179
:10089000C600F091C70080819091C800892B8083A9
:1008A000E091CB00F091CC0080819091C800892B21
:1008B00080830895E091CB00F091CC0090818091ED
:1008C000C8008095892380830895E091C600F09147
:1008D000C70090818091C800809589238083E09132
:1008E000CB00F091CC0080819091C800892B80834F
:1008F00080EA95E00197F1F72FB7F894E091CB00EB
:10090000F091CC0090818091C800809589238083EC
:10091000E091C600F091C70080819091C800892BBA
:10092000808380EC90E00197F1F7E091C900F091AD
:10093000CA0040813091C8002FBF80EE94E001973B
:10094000F1F7E091C900F091CA0080819091C80050
:10095000892311F481E00895842F8323089550930F
:10096000CC004093CB007093C7006093C600909377
:10097000CA008093C90081E090E002C0880F991FEF
:100980002A95E2F78093C8000E9465040895282FF5
:100990003FB7F894E091C600F091C7009081809134
:1009A000C800809589238083E091CB00F091CC0032
:1009B00080819091C800892B808388E08A95F1F727
:1009C000222399F0E091CB00F091CC0090818091AE
:1009D000C800809589238083E091C600F091C7000C
:1009E00080819091C800892B808380E38A95F1F7FC
:1009F000E091C900F091CA0080819091C8008923DC
:100A000009F420E080EB8A95F1F7E091C600F091BF
:100A1000C7008081892B8083E091CB00F091CC00CE
:100A200090818091C800809589238083662391F00E
:100A3000E091C600F091C70080819091C800892B99
:100A40008083E091CB00F091CC0080819091C80030
:100A5000892B80833FBF88E28A95F1F7822F089522
:100A6000817060E00E94C70408950F931F93182FB0
:100A700008E0812F81700E94300516958111106861
:100A80000150B9F7812F1F910F9108950F931F9374
:100A9000182F08E0812F8170013011F060E001C053
:100AA00061E00E94C704169581111068015091F70A
:100AB000812F1F910F9108958FEF0E9435050895A2
:100AC000DF92EF92FF920F931F93CF93DF93E82E65
:100AD000EB010E9465048823A1F580EF0E94350593
:100AE00080E4FF24182F98EFD92ED80E81E00E94C1
:100AF0003005082F81E00E943005882329F000236B
:100B000071F08EEFF82E1FC0002349F41E1528F057
:100B1000888180FF04C0E11611F0F12E01E0802FE2
:100B20000E943005888186958883002311F08068B3
:100B3000888311501D15D1F6112329F02196812F9C
:100B4000D1CFFF24FA948F2DDF91CF911F910F9178
:100B5000FF90EF90DF900895FF920F931F93CF9334
:100B6000DF93082FEB01F42E0E946504209751F0CB
:100B700085E50E94350518E089910E9435051150E0
:100B8000D9F703C08CEC0E943505FF2021F0802F9F
:100B90000E94460503C0802F0E943505DF91CF914A
:100BA0001F910F91FF90089540E00E94AC050895B9
:100BB00041E00E94AC050895AF92BF92CF92DF92C0
:100BC000EF92FF920F931F93DF93CF93CDB7DEB7D2
:100BD00029970FB6F894DEBF0FBECDBF6C015B0145
:100BE0000E9465048EEBB6010E94D4058E010F5F52
:100BF0001F4F8AE0E82EF12CEC0EFD1E0E945C05D2
:100C0000F80181938F01EE15FF05C1F7CE01019622
:100C100069E070E00E941E04882309F476C083E036
:100C200063C0CA018E7FB3E0880F991FBA95E1F7C0
:100C30002F814CE050E0421B5109480F591F57FDCE
:100C400002C0E0E004C0509541955F4FE1E068329A
:100C500011F0623289F48D8190E08076907080325C
:100C6000910539F08034910531F0892B29F4487FC2
:100C700003C04C7F01C04E7F9A012F70307080E816
:100C800092E0289FB001299F700D389F700D1124AC
:100C9000EE2311F460507E4F9A01A4E0369527951B
:100CA000AA95E1F7AB01452F552746954695C90111
:100CB00073E0880F991F7A95E1F7220F331F820F97
:100CC000931F480F591FEE2319F0509541955F4F20
:100CD000CA018A5D9D4F8950974010F040ED57E062
:100CE000F5015183408380E029960FB6F894DEBF6A
:100CF0000FBECDBFCF91DF911F910F91FF90EF906D
:100D0000DF90CF90BF90AF900895F60160819A81F7
:100D100080E02981422F50E0482B592B603109F0A7
:100D20008ECF7FCF1F93CF93DF93182FEB010E94BD
:100D300065040E943E04882311F482E00CC0113047
:100D400029F084E4BE010E94D80504C084E4BE01F9
:100D50000E94D40580E0DF91CF911F9108950F93F9
:100D60001F93CF93DF938C01EB01F8018081BE01CB
:100D70000E946005F801808381508D3F10F081E072
:100D800008C08881883221F0803111F0823269F701
:100D900080E0DF91CF911F910F910895A1E1B0E024
:100DA000E4EDF6E00C94700C3C017F876E876A01DD
:100DB000FC0117821682838181FD03C06FEF7FEFF4
:100DC0006FC39E012F5F3F4F398B288BF301238127
:100DD000EE85FF8523FD859123FF8191FF87EE87B7
:100DE000882309F45AC3853251F4EE85FF8523FD2B
:100DF000859123FF8191FF87EE87853229F490E06A
:100E0000B3010E94C90DE2CF982F10E088249924E5
:100E10001032B0F49B3269F09C3228F4903251F0D9
:100E2000933271F40BC09D3239F0903349F4116064
:100E300028C01260146025C0186023C0106121C052
:100E400017FD2AC0892F80538A3078F416FF06C018
:100E5000FAE09F9E902C1124980E13C03AE0839ED6
:100E6000802C1124880E10620CC09E3221F416FDD5
:100E700014C3106406C09C3611F4106802C0983682
:100E800059F4EE85FF8523FD959123FF9191FF870E
:100E9000EE87992309F0BCCF892F8554833020F445
:100EA000812F8061905E07C0892F8556833008F0BE
:100EB0009FC1812F8F7E86FD02C076E0972E6FE363
:100EC000F62EF822953619F4F0E4FF2A07C096367C
:100ED00019F420E8F22A02C091109A94F7FE0AC091
:100EE0003BE3391518F45CE3B52E02C0B92CB3947A
:100EF00027E009C047E0491520F4BB2447E0942EC1
:100F0000F7CF292DBB24C60104969D878C87F60157
:100F10006081718182819381AE014F5F5F4F0B2DA4
:100F20000E94A70C6C010981202E332400FF04C00D
:100F300003FD02C01DE209C0F1FE02C01BE205C0B4
:100F4000F2FC02C010E001C010E2C1018C70907090
:100F5000892BB9F1112311F483E001C084E08815D5
:100F600010F088240AC0881AF3FC07C080E290E0E1
:100F7000B3010E94C90D8A94C9F7112329F0812F6A
:100F800090E0B3010E94C90D23FE03C004E510E008
:100F90000EC008E510E00BC0E114F10409F0805226
:100FA00090E0B3010E94C90D0F5F1F4F05C0EF2CE9
:100FB000FF24F0E1EF22FF24F8018491882361F7F8
:100FC00014C1F7FE12C0BC0C24FE04C08A81813318
:100FD00009F4BA941B141CF0BB24B3942DC0F8E0A0
:100FE000FB1550F538E0B32E27C0F6FC25C0892D3F
:100FF00090E08C159D054CF02CEFC2162FEFD20619
:1010000024F030E8F32A01C09A94992049F0E2E0F4
:10101000F0E0EC0FFD1FE90DF11D80818033A1F39D
:10102000F7FE0AC0B92CB394892D90E0C816D906F2
:1010300014F0992401C09C18F7FC03C025E030E0AF
:1010400009C01C141D041CF021E030E003C096010F
:101050002F5F3F4F112311F02F5F3F4F992029F051
:10106000892D90E00196280F391F882D90E02817D0
:10107000390714F0882401C0821A4F2C5524C2016C
:1010800089709070892B39F008C080E290E0B3013C
:101090000E94C90D8A948820C1F7112329F0812F5D
:1010A00090E0B3010E94C90D43FE07C008C080E371
:1010B00090E0B3010E94C90D8A948820C1F7F7FE21
:1010C00046C08601D7FE02C000E010E07601089419
:1010D000E11CF11CE01AF10A41E050E04C0F5D1FE9
:1010E000E40EF51E26014B185108892D90E0AA2424
:1010F000BB24A81AB90A5FEF0F3F150729F48EE247
:1011000090E0B3010E94C90DC016D10634F040161C
:1011100051061CF4F701808101C080E301501040AA
:101120000894E11CF11C0A151B052CF090E0B3019A
:101130000E94C90DE0CF0C151D0539F49A81963334
:1011400018F4953311F424FE81E390E04BC08A81BA
:10115000813309F00F7E90E0B3010E94C90D992000
:10116000A1F08EE290E0B3010E94C90D12E0E1E02F
:10117000F0E0EC0FFD1FE10FF11D1F5F808190E09B
:10118000B3010E94C90D9A9491F744FC03C085E60F
:1011900090E002C085E490E0B3010E94C90DD7FC45
:1011A00005C0C114D10441F404FF06C0D094C19419
:1011B000D108D3948DE201C08BE290E0B3010E948C
:1011C000C90D80E305C08F5F26EF3FEFC20ED31E2F
:1011D0003AE0C316D104BCF790E0B3010E94C90DF8
:1011E000C601C096B3010E94C90DCC84DD8452C1F2
:1011F000933631F0933799F0933509F059C023C0F5
:10120000F601808189835E010894A11CB11C22E053
:1012100030E0C20ED31E21E0E22EF12C12C0F60106
:10122000A080B18016FD03C06FEF7FEF02C0692D73
:1012300070E022E030E0C20ED31EC5010E948A0D8C
:101240007C011F7713C0F601A080B18016FD03C09A
:101250006FEF7FEF02C0692D70E022E030E0C20E38
:10126000D31EC5010E947F0D7C01106813FF07C0CB
:101270001BC080E290E0B3010E94C90D8A94882DC2
:1012800090E0E816F906A8F30FC0F50117FD859167
:1012900017FF81915F0190E0B3010E94C90D811099
:1012A0008A940894E108F108E114F10471F7F2C09E
:1012B000943611F0993689F517FF08C0F6012081A0
:1012C00031814281538184E090E00AC0F60180813F
:1012D00091819C01442737FD4095542F82E090E096
:1012E000C80ED91E9FE6F92EF12257FF09C050956E
:1012F0004095309521953F4F4F4F5F4F90E8F92A29
:10130000CA01B901AE014F5F5F4F2AE030E00E9491
:10131000190EE82EE889EE1A41C0953721F41F7E98
:101320002AE030E01CC0197F9F3661F0903720F42E
:10133000983509F0B2C00FC0903739F0983709F0EE
:10134000ACC004C028E030E00AC0106114FD146095
:1013500020E130E004C014FD166020E132E017FF08
:1013600008C0F601608171818281938144E050E080
:1013700008C0F60180819181BC0180E090E042E0EC
:1013800050E0C40ED51EAE014F5F5F4F0E94190E94
:10139000E82E5889E51A8FE7F82EF122F6FE0BC0E9
:1013A0008EEFF822E91438F4F4FE07C0F2FC05C011
:1013B0009FEEF92202C01E2D01C0192DF4FE0DC0B2
:1013C000FE01EE0DF11D8081803319F4E9EEFE225D
:1013D00008C01F5FF2FE05C003C08F2D867809F09C
:1013E0001F5F0F2DF3FC14C0F0FE0FC0181510F096
:1013F0009E2C0BC09E2C980C911A182D06C080E2D2
:1014000090E0B3010E94C90D1F5F1815C0F304C01E
:10141000181510F4811A01C0882404FF0FC080E35E
:1014200090E0B3010E94C90D02FF1DC001FD03C081
:1014300088E790E00EC088E590E00BC0802F8678AA
:1014400091F001FF02C08BE201C080E2F7FC8DE267
:1014500090E0B3010E94C90D06C080E390E0B301A3
:101460000E94C90D9A94E914C0F3EA94E1E0F0E017
:10147000EC0FFD1FEE0DF11D808190E0B3010E9485
:10148000C90DEE2091F706C080E290E0B3010E9402
:10149000C90D8A948820C1F799CCF30166817781C0
:1014A000CB016196E2E10C948C0C5058BB27AA2723
:1014B0000ED075C166D130F06BD120F031F49F3F72
:1014C00011F41EF45BC10EF4E095E7FB51C1E92F66
:1014D00077D180F3BA17620773078407950718F06E
:1014E00071F49EF58FC10EF4E0950B2EBA2FA02D4E
:1014F0000B01B90190010C01CA01A0011124FF27C1
:10150000591B99F0593F50F4503E68F11A16F040BB
:10151000A22F232F342F4427585FF3CF46953795BA
:101520002795A795F0405395C9F77EF41F16BA0B7F
:10153000620B730B840BBAF09150A1F0FF0FBB1F2D
:10154000661F771F881FC2F70EC0BA0F621F731F76
:10155000841F48F4879577956795B795F7959E3FD3
:1015600008F0B3CF9395880F08F09927EE0F979561
:1015700087950895D9D008F481E008950CD00FC163
:1015800007D140F0FED030F021F45F3F19F0F0C0F9
:10159000511139C1F3C014D198F39923C9F35523DC
:1015A000B1F3951B550BBB27AA2762177307840756
:1015B00038F09F5F5F4F220F331F441FAA1FA9F30C
:1015C00033D00E2E3AF0E0E830D091505040E695FE
:1015D000001CCAF729D0FE2F27D0660F771F881F5F
:1015E000BB1F261737074807AB07B0E809F0BB0B4E
:1015F000802DBF01FF2793585F4F2AF09E3F510572
:1016000068F0B6C000C15F3FECF3983EDCF386950E
:1016100077956795B795F7959F5FC9F7880F911DE7
:101620009695879597F90895E1E0660F771F881FD3
:10163000BB1F621773078407BA0720F0621B730B86
:10164000840BBA0BEE1F88F7E095089504D06894D8
:10165000B111D9C00895BCD088F09F5790F0B92F30
:101660009927B751A0F0D1F0660F771F881F991FF7
:101670001AF0BA95C9F712C0B13081F0C3D0B1E009
:101680000895C0C0672F782F8827B85F39F0B93F19
:10169000CCF3869577956795B395D9F73EF49095F9
:1016A0008095709561957F4F8F4F9F4F0895E89477
:1016B00009C097FB3EF490958095709561957F4F9A
:1016C0008F4F9F4F9923A9F0F92F96E9BB27939548
:1016D000F695879577956795B795F111F8CFFAF458
:1016E000BB0F11F460FF1BC06F5F7F4F8F4F9F4F89
:1016F00016C0882311F096E911C0772321F09EE8E7
:10170000872F762F05C0662371F096E8862F70E04C
:1017100060E02AF09A95660F771F881FDAF7880F26
:101720009695879597F90895990F0008550FAA0B7C
:10173000E0E8FEEF16161706E807F907C0F01216E4
:101740001306E407F50798F0621B730B840B950BE7
:1017500039F40A2661F0232B242B252B21F408953C
:101760000A2609F4A140A6958FEF811D811D0895D9
:1017700097F99F6780E870E060E008959FEF80EC44
:10178000089500240A9416161706180609060895E7
:1017900000240A9412161306140605060895092E4D
:1017A0000394000C11F4882352F0BB0F40F4BF2BBC
:1017B00011F460FF04C06F5F7F4F8F4F9F4F0895FC
:1017C00057FD9058440F551F59F05F3F71F04795F2
:1017D000880F97FB991F61F09F3F79F087950895D7
:1017E000121613061406551FF2CF4695F1DF08C0F6
:1017F000161617061806991FF1CF86957105610513
:1018000008940895E894BB2766277727CB0197F9BA
:1018100008958ADF08F48FEF08950BD0C0CFB1DFB1
:1018200028F0B6DF18F0952309F0A2CFA7CF112436
:10183000EACFC6DFA0F3959FD1F3950F50E0551F77
:10184000629FF001729FBB27F00DB11D639FAA2715
:10185000F00DB11DAA1F649F6627B00DA11D661F64
:10186000829F2227B00DA11D621F739FB00DA11D85
:10187000621F839FA00D611D221F749F3327A00D3F
:10188000611D231F849F600D211D822F762F6A2FDB
:1018900011249F5750408AF0E1F088234AF0EE0F60
:1018A000FF1FBB1F661F771F881F91505040A9F76D
:1018B0009E3F510570F05CCFA6CF5F3FECF3983EA2
:1018C000DCF3869577956795B795F795E7959F5FD4
:1018D000C1F7FE2B880F911D9695879597F908956E
:1018E0002F923F924F925F926F927F928F929F9230
:1018F000AF92BF92CF92DF92EF92FF920F931F931E
:10190000CF93DF93CDB7DEB7CA1BDB0B0FB6F894CE
:10191000DEBF0FBECDBF09942A88398848885F840E
:101920006E847D848C849B84AA84B984C884DF807F
:10193000EE80FD800C811B81AA81B981CE0FD11D63
:101940000FB6F894DEBF0FBECDBFED01089528306D
:1019500008F027E03327DA01990F311D87FD9160E8
:1019600000966105710539F432602E5F3D9330E3D6
:101970002A95E1F708959F3F30F0803871056105A1
:1019800009F03C5F3C5F3D93913008F08068911D09
:10199000DF93CF931F930F93FF92EF92192F987FAE
:1019A0009695E92F96959695E90FFF27EA54FF4FF4
:1019B00099273327EE24FF24A701E7010590089417
:1019C000079428F4360FE71EF81E491F511D660FB5
:1019D000771F881F991F0694A1F70590079428F494
:1019E000E70EF81E491F561FC11D770F881F991F4C
:1019F000661F0694A1F70590079428F4F80E491F76
:101A0000561FC71FD11D880F991F661F771F069489
:101A1000A1F70590079420F4490F561FC71FD81F40
:101A2000990F661F771F881F0694A9F78491109558
:101A3000177041F0D695C79557954795F794E79459
:101A40001A95C1F7ECE5F0E0689415901591359181
:101A50006591959105907FE27395E118F10A430B2A
:101A6000560BC90BD009C0F7E10CF11E431F561FDE
:101A7000C91FD01D7EF4703311F48A95E6CFE89427
:101A8000015030F0080F0AF40027021708F4202F45
:101A90002395022F7A3328F079E37D932A95E9F78D
:101AA00010C07D932A9589F606949795679537958A
:101AB00017951794E118F10A430B560BC90BD0097F
:101AC00098F023957E9173957A3308F070E37C93B8
:101AD0002013B8F77E9170617D9330F0839571E3A8
:101AE0007D9370E32A95E1F71124EF90FF900F9119
:101AF0001F91CF91DF91992787FD90950895FC0163
:101B00000590615070400110D8F7809590958E0F28
:101B10009F1F0895FC016150704001900110D8F79B
:101B2000809590958E0F9F1F0895FA01CF93FF9394
:101B3000EF93223044F1253234F5C22FE894CA30B5
:101B400049F497FB3EF490958095709561957F4F91
:101B50008F4F9F4F2C2F332744275527FF93EF9309
:101B60000E94870EEF91FF91605D6A330CF0695D12
:101B70006193B901CA01605070408040904051F7B4
:101B800016F4CDE2C19310828F919F91CF910C9466
:101B9000770E0F931F93CF93DF938C01EB018B8113
:101BA00081FF1BC082FF0DC02E813F818C819D81F2
:101BB0002817390764F4E881F9810193F983E883F0
:101BC00006C0E885F985802F0995892B31F48E812F
:101BD0009F8101969F838E8302C00FEF1FEFC80184
:101BE000DF91CF911F910F910895AEE0B0E0EBEF40
:101BF000FDE00C947E0C0D891E8986E08C831A838F
:101C000009838FEF9FE79E838D839E01275E3F4F61
:101C1000CE0101966F89788DA9010E94CE062F8191
:101C20003885020F131FF80110822E96E4E00C9401
:101C30009A0CFA01AA27283051F1203181F1E89459
:101C40006F936E7F6E5F7F4F8F4F9F4FAF4FB1E0AF
:101C50003ED0B4E03CD0670F781F891F9A1FA11DAA
:101C6000680F791F8A1F911DA11D6A0F711D811DAB
:101C7000911DA11D20D009F468943F912AE0269F70
:101C800011243019305D3193DEF6CF010895462FCF
:101C90004770405D4193B3E00FD0C9F7F6CF462FB0
:101CA0004F70405D4A3318F0495D31FD4052419319
:101CB00002D0A9F7EACFB4E0A695979587957795D6
:101CC0006795BA95C9F700976105710508959B015D
:101CD000AC010A2E06945795479537952795BA95E6
:101CE000C9F7620F731F841F951FA01D0895DC01A3
:101CF000FC01672F71917723E1F7329704C07C9143
:101D00006D9370836291AE17BF07C8F30895A1E287
:101D10001A2EAA1BBB1BFD010DC0AA1FBB1FEE1F65
:101D2000FF1FA217B307E407F50720F0A21BB30BB0
:101D3000E40BF50B661F771F881F991F1A9469F72C
:101D400060957095809590959B01AC01BD01CF0188
:061D50000895F894FFCF96
:101D560020252E326620000D0A000000803F00007C
:101D660020410000C84200007A4400401C46005052
:021D7600C34761
:00000001FF
